:100000000C942A000C94DB0F0C9447000C940F10F6
:100010000C9447000C9447000C9447000C94470044
:100020000C9447000C9447000C9447000C94470034
:100030000C9447000C9447000C9447000C94470024
:100040000C94DA070C9447000C9447000C9447007A
:100050000C94470011241FBECFE5D8E0DEBFCDBF12
:1000600011E0A0E6B0E0EAEDF7E402C005900D92E1
:10007000AC35B107D9F711E0ACE5B1E001C01D9294
:10008000A338B107E1F70E94EA220C94EB230C9409
:100090000000EF92FF920F931F937B018C0120E0F1
:1000A00030E040E05FE40E94490388238CF0C801FF
:1000B000B70120E030E040E05FE40E94C1010E940F
:1000C000A9039B01AC01205030404040504806C07D
:1000D000C801B7010E94A9039B01AC01B901CA0183
:1000E0001F910F91FF90EF900895A0E0B0E0EBE733
:1000F000F0E00C94B423DC012B01FA019C919230C6
:1001000008F439C1EB018881823008F433C194309E
:1001100069F4843009F02FC111969C91119789815F
:10012000981709F428C1ADE2B1E025C1843009F483
:1001300021C18230A9F4923009F01DC19A01AD01AC
:1001400088E0EA010990AE01E90109929E0181501F
:10015000C1F7E201898111969C918923818308C1AD
:10016000923009F407C112962D903C901397EB0141
:100170008A819B811496AD90BD90CD90DC901797AD
:10018000EC80FD800E811F819101281B390BB90184
:1001900037FF04C066277727621B730B6032710537
:1001A0000CF061C0121613066CF537014801062EDB
:1001B00004C096948794779467940A94D2F721E0C8
:1001C00030E040E050E004C0220F331F441F551FB1
:1001D0006A95D2F721503040404050402E213F21B7
:1001E00040235123211531054105510521F021E01E
:1001F00030E040E050E079018A01E628F72808293C
:1002000019293CC0232BD1F1260E371E350146019A
:10021000062E04C096948794779467940A94D2F734
:1002200021E030E040E050E004C0220F331F441FC3
:10023000551F6A95D2F721503040404050402A2146
:100240003B214C215D21211531054105510521F04E
:1002500021E030E040E050E059016A01A628B728CB
:10026000C828D9280BC0821593052CF01C01AA249C
:10027000BB24650103C0EE24FF24870111969C91E5
:10028000D20111968C91981709F445C0992339F041
:10029000A80197012A193B094C095D0906C0A6016E
:1002A00095012E193F09400B510B57FD08C01182D3
:1002B0003382228224833583468357831DC081E0A5
:1002C00081833382228288279927DC01821B930B4A
:1002D000A40BB50B84839583A683B7830DC0220F2F
:1002E000331F441F551F24833583468357838281E0
:1002F000938101979383828324813581468157813D
:10030000DA01C9010197A109B1098F5F9F4FAF4F72
:10031000BF4328F30BC0918333822282EA0CFB1C7B
:100320000C1D1D1DE482F5820683178383E0808304
:10033000248135814681578157FF1AC0C901AA27F8
:1003400097FDA095BA2F81709070A070B0705695EF
:10035000479537952795822B932BA42BB52B848318
:100360009583A683B7838281938101969383828349
:10037000DF0101C0D201CD01CDB7DEB7E2E10C94BF
:10038000D023A0E2B0E0E7ECF1E00C94C023698355
:100390007A838B839C832D833E834F835887E9E048
:1003A000EE2EF12CEC0EFD1ECE010196B7010E943F
:1003B000D2048E010F5E1F4FCE010596B8010E9438
:1003C000D2048A8991E089278A8BC701B801AE01DE
:1003D000475E5F4F0E9475000E94FD03A096E6E015
:1003E0000C94DC23A0E2B0E0E8EFF1E00C94C02331
:1003F00069837A838B839C832D833E834F835887C5
:10040000F9E0EF2EF12CEC0EFD1ECE010196B701A6
:100410000E94D2048E010F5E1F4FCE010596B801D7
:100420000E94D204C701B801AE01475E5F4F0E942F
:1004300075000E94FD03A096E6E00C94DC23A0E288
:10044000B0E0E5E2F2E00C94B42369837A838B8315
:100450009C832D833E834F835887CE010196BE0136
:10046000675F7F4F0E94D204CE010596BE016F5E8A
:100470007F4F0E94D2049985923088F0898982301A
:10048000C8F0943019F4823051F404C0843029F457
:10049000923081F48DE291E0C6C0923049F420E0C0
:1004A0009A858A89981321E02A87CE010996BBC0D4
:1004B000823049F420E09A858A89981321E02A8BBA
:1004C000CE014196B0C02D843E844F8458886D88FB
:1004D0007E888F88988CEE24FF248701AA24BB2471
:1004E000650140E050E060E070E0E0E0F0E0C10174
:1004F00081709070892BE9F0E60CF71C081D191D1E
:100500009A01AB012A0D3B1D4C1D5D1D80E090E062
:10051000A0E0B0E0E614F7040805190520F481E036
:1005200090E0A0E0B0E0BA01A901480F591F6A1F8E
:100530007B1FAA0CBB1CCC1CDD1C97FE08C081E0F5
:1005400090E0A0E0B0E0A82AB92ACA2ADB2A3196B6
:10055000E032F10549F0660C771C881C991C569412
:10056000479437942794C3CFFA85EA892B893C892D
:100570008B859C85280F391F2E5F3F4F17C0CA01FE
:1005800081709070892B61F016950795F794E79428
:1005900080E090E0A0E0B0E8E82AF92A0A2B1B2BC3
:1005A00076956795579547952F5F3F4F77FDE7CF36
:1005B0000CC0440F551F661F771F17FD4160EE0CDE
:1005C000FF1C001F111F21503040403090E05907A0
:1005D00090E0690790E4790760F32B8F3C8FDB0193
:1005E000CA018F779070A070B07080349105A1051A
:1005F000B10561F447FD0AC0E114F10401051105DC
:1006000029F0405C5F4F6F4F7F4F40781A8EFE1786
:1006100011F081E08A8F4D8F5E8F6F8F78A383E01A
:10062000898FCE0149960E94FD03A096E2E10C94C9
:10063000D023A8E1B0E0EFE1F3E00C94C02369839C
:100640007A838B839C832D833E834F83588789E0F5
:10065000E82EF12CEC0EFD1ECE010196B7010E9492
:10066000D2048E010F5E1F4FCE010596B8010E9485
:10067000D2048985823040F08989823028F0C70110
:10068000B8010E944A0501C08FEF6896E6E00C941D
:10069000DC23A8E1B0E0EFE4F3E00C94C02369832D
:1006A0007A838B839C832D833E834F83588789E095
:1006B000E82EF12CEC0EFD1ECE010196B7010E9432
:1006C000D2048E010F5E1F4FCE010596B8010E9425
:1006D000D2048985823040F08989823028F0C701B0
:1006E000B8010E944A0501C08FEF6896E6E00C94BD
:1006F000DC23A8E1B0E0EFE7F3E00C94C0236983CA
:100700007A838B839C832D833E834F83588789E034
:10071000E82EF12CEC0EFD1ECE010196B7010E94D1
:10072000D2048E010F5E1F4FCE010596B8010E94C4
:10073000D2048985823040F08989823028F0C7014F
:10074000B8010E944A0501C081E06896E6E00C9479
:10075000DC23ACE0B0E0EFEAF3E00C94C42369835F
:100760007A838B839C83CE010196BE016B5F7F4FA2
:100770000E94D2048D81823061F1823050F1843048
:1007800021F48E81882351F12EC02F81388537FDC9
:1007900020C06E812F3131051CF06623F9F023C093
:1007A0008EE190E0821B930B29853A854B855C8511
:1007B00004C056954795379527958A95D2F76623B5
:1007C000B1F050954095309521953F4F4F4F5F4F79
:1007D0000EC020E030E040E050E009C02FEF3FEFD6
:1007E0004FEF5FE704C020E030E040E050E8B9019F
:1007F000CA012C96E2E00C94E023DF92EF92FF9284
:100800000F931F93FC01E480F58006811781D1804E
:100810008081823048F480E090E0A0E1B0E0E82AF6
:10082000F92A0A2B1B2BA5C0843009F49FC0823003
:1008300021F4EE24FF24870105C0E114F104010531
:10084000110519F4E0E0F0E096C0628173819FEF3A
:10085000623879070CF05BC022E83FEF261B370BAC
:100860002A3131052CF020E030E040E050E02AC091
:10087000B801A701022E04C0769567955795479554
:100880000A94D2F781E090E0A0E0B0E004C0880FC5
:10089000991FAA1FBB1F2A95D2F70197A109B10979
:1008A0008E219F21A023B1230097A105B10521F03E
:1008B00081E090E0A0E0B0E09A01AB01282B392B59
:1008C0004A2B5B2BDA01C9018F779070A070B07052
:1008D00080349105A105B10539F427FF09C0205CDA
:1008E0003F4F4F4F5F4F04C0215C3F4F4F4F5F4F13
:1008F000E0E0F0E02030A0E03A07A0E04A07A0E402
:100900005A0710F0E1E0F0E079018A0127C0603871
:10091000710564F5FB01E158FF4FD801C7018F77DE
:100920009070A070B07080349105A105B10539F4C4
:10093000E7FE0DC080E490E0A0E0B0E004C08FE3EB
:1009400090E0A0E0B0E0E80EF91E0A1F1B1F17FFA1
:1009500005C016950795F794E794319687E01695AC
:100960000795F794E7948A95D1F705C0EE24FF2404
:100970008701EFEFF0E06E2F679566276795902F60
:100980009F77D794DD24D7948E2F8695492F462BB9
:10099000582F5D29B701CA011F910F91FF90EF9069
:1009A000DF900895FC01DB01408151812281622F9B
:1009B0006F7770E0221F2227221F9381892F880FD3
:1009C000822B282F30E0991F9927991F11969C930D
:1009D000119721153105A9F54115510561057105DD
:1009E00011F482E037C082E89FEF13969C938E93B8
:1009F00012979A01AB0167E0220F331F441F551F66
:100A00006A95D1F783E08C930DC0220F331F441FEA
:100A1000551F12968D919C911397019713969C9355
:100A20008E931297203080E0380780E0480780E4FA
:100A3000580758F314962D933D934D935C93179755
:100A400008952F3F310579F4411551056105710570
:100A500019F484E08C93089564FF03C081E08C93C3
:100A600012C01C9210C02F57304013963C932E9307
:100A7000129783E08C9387E0440F551F661F771F02
:100A80008A95D1F7706414964D935D936D937C9322
:100A9000179708951F93DC01FB019C91923008F495
:100AA00047C08081823008F443C0943051F41196DD
:100AB0001C91843099F58181682F70E0611B710968
:100AC0003FC0843021F0923031F48230B9F181811D
:100AD000882389F12DC011961C9111978230F1F075
:100AE00081811817D9F412962D913C911397828128
:100AF00093818217930794F028173907BCF0149656
:100B00008D919D910D90BC91A02D248135814681C0
:100B10005781281739074A075B0718F4112341F05A
:100B20000AC082179307A407B50740F4112319F0F0
:100B300061E070E005C06FEF7FEF02C060E070E041
:100B4000CB011F910895DF93CF93CDB7DEB7A7E216
:100B5000B0E0E7E2F0E080818F778C93A7E2B0E02D
:100B6000E7E2F0E0808180648C93A7E2B0E0E7E206
:100B7000F0E0808180628C93A6E2B0E0E6E2F0E0F3
:100B800080818F7D8C93A6E2B0E0E6E2F0E0808188
:100B9000887F8C93A6E2B0E0E6E2F0E08081876097
:100BA0008C93A6E2B0E0E6E2F0E0808180688C936E
:100BB000CF91DF910895DF93CF93CDB7DEB728971C
:100BC0000FB6F894DEBF0FBECDBF8E8378876F83DC
:100BD0001A821B821C821D8281E0898380913501EB
:100BE000813009F05FC082E080933501A7E2B0E078
:100BF000E7E2F0E08081807E8C93A7E2B0E0E7E25C
:100C0000F0E090818E81892B8C93A6E2B0E0E6E241
:100C1000F0E0808180648C930BC08A819B81AC81E1
:100C2000BD810196A11DB11D8A839B83AC83BD83C9
:100C3000E6E2F0E0808182958F70882F90E08170ED
:100C40009070009761F48A819B81AC81BD81803571
:100C500023EC920720E0A20720E0B207F1F68A8198
:100C60009B81AC81BD81803523EC920720E0A207F7
:100C700020E0B20719F482E0898307C0A6E2B0E061
:100C8000E6E2F0E0808180618C93E5E2F0E0808133
:100C9000882F90E0EF81F8859183808381E08093B5
:100CA000350102C083E089838981882F90E02896EE
:100CB0000FB6F894DEBF0FBECDBFCF91DF91089580
:100CC000DF93CF9300D000D000D0CDB7DEB78A83BA
:100CD0007C836B835E834D8381E0898380913501C2
:100CE0008130D1F58B819C81009721F08D819E818F
:100CF000009711F4198232C082E0809335018B8114
:100D00009C8190935D0180935C018D819E81909385
:100D10005F0180935E0183E080936801A7E2B0E009
:100D2000E7E2F0E08081807E8C93A7E2B0E0E7E22A
:100D3000F0E090818A81892B8C93A6E2B0E0E6E214
:100D4000F0E0808180648C93A6E2B0E0E6E2F0E01F
:100D5000808188608C9302C083E089838981882F99
:100D600090E026960FB6F894DEBF0FBECDBFCF91B0
:100D7000DF910895DF93CF9300D00F92CDB7DEB708
:100D80009B838A8381E089838A819B81009711F408
:100D9000198255C080913501813009F04EC082E042
:100DA0008093350182E080936801EA81FB81808134
:100DB00091819093610180936001EA81FB8182813E
:100DC00080936601EA81FB81838194819093630122
:100DD00080936201EA81FB81858196819093650110
:100DE0008093640110926701A7E2B0E0E7E2F0E0CF
:100DF0008081807E8C93A7E2B0E0E7E2F0E0408162
:100E0000209160013091610180916701882F90E00D
:100E1000F901E80FF91F8081842B8C93A6E2B0E0E2
:100E2000E6E2F0E0808180648C93A6E2B0E0E6E246
:100E3000F0E0808188608C9302C083E0898389819F
:100E4000882F90E00F900F900F90CF91DF91089531
:100E5000DF93CF93CDB7DEB727970FB6F894DEBFF9
:100E60000FBECDBF9F838E8381E08D8319821A824E
:100E70001B821C828E819F81009719F482E08D83F2
:100E80008DC080913501813009F086C082E0809369
:100E900035011092670174C0A7E2B0E0E7E2F0E02C
:100EA0008081807E8C93A7E2B0E0E7E2F0E04081B1
:100EB000EE81FF812081318180916701882F90E050
:100EC000F901E80FF91F8081842B8C93A6E2B0E032
:100ED000E6E2F0E0808180648C930BC089819A8186
:100EE000AB81BC810196A11DB11D89839A83AB831F
:100EF000BC83E6E2F0E0808182958F70882F90E0DD
:100F000081709070009761F489819A81AB81BC8176
:100F1000803523EC920720E0A20720E0B207F1F62B
:100F200089819A81AB81BC81803523EC920720E0D6
:100F3000A20720E0B20719F482E08D8321C0A6E267
:100F4000B0E0E6E2F0E0808180618C93EE81FF8189
:100F50002381348180916701882F90E0880F991F49
:100F6000D901A80FB91FE5E2F0E08081882F90E059
:100F700011969C938E93809167018F5F8093670198
:100F8000EE81FF81928180916701891708F484CFF7
:100F900081E08093350102C083E08D838D81882FAD
:100FA00090E027960FB6F894DEBF0FBECDBFCF916D
:100FB000DF9108951F920F920FB60F9211242F9375
:100FC0003F934F935F936F937F938F939F93AF93D1
:100FD000BF93EF93FF93DF93CF93CDB7DEB78091AD
:100FE00068018330D9F481E080933501A0915C01E0
:100FF000B0915D01E5E2F0E08081882F90E08D9373
:101000009C93E0915E01F0915F010995A6E2B0E04A
:10101000E6E2F0E08081877F8C9356C08091680182
:10102000823009F051C020916401309165018091B6
:101030006701882F90E0880F991FD901A80FB91F69
:10104000E5E2F0E08081882F90E011969C938E93EA
:10105000809167018F5F8093670190916701809114
:101060006601981781F481E080933501E091620177
:10107000F09163010995A6E2B0E0E6E2F0E080813C
:10108000877F8C9321C0A7E2B0E0E7E2F0E08081A7
:10109000807E8C93A7E2B0E0E7E2F0E0408120910F
:1010A00060013091610180916701882F90E0F90122
:1010B000E80FF91F8081842B8C93A6E2B0E0E6E272
:1010C000F0E0808180648C93CF91DF91FF91EF916C
:1010D000BF91AF919F918F917F916F915F914F9150
:1010E0003F912F910F900FBE0F901F901895DF9397
:1010F000CF93CDB7DEB72F970FB6F894DEBF0FBEF4
:10110000CDBF8F8780E065E040E00E94580C80E012
:1011100066E040E00E94580C83E06F850E94680EF4
:1011200080E067E041E00E94580C80E090E0A0E0A1
:10113000B0E48B879C87AD87BE876B857C858D856A
:101140009E8520E030E04AEF54E40E941F02DC015B
:10115000CB018F839887A987BA876F817885898526
:101160009A8520E030E040E85FE30E94790388231D
:101170002CF481E090E09E838D833FC06F81788561
:1011800089859A8520E03FEF4FE757E40E941903D5
:1011900018164CF56B857C858D859E8520E030E0AA
:1011A00040E251E40E941F02DC01CB01BC01CD01F1
:1011B0000E944900DC01CB019E838D830FC088EC27
:1011C00090E09C838B838B819C810197F1F79C83BA
:1011D0008B838D819E8101979E838D838D819E81DE
:1011E000009769F714C06F81788589859A850E9478
:1011F0004900DC01CB019E838D838D819E819A8382
:10120000898389819A810197F1F79A83898380E0A4
:1012100067E040E00E94580C2F960FB6F894DEBFAE
:101220000FBECDBFCF91DF910895DF93CF93CDB7A0
:10123000DEB72F970FB6F894DEBF0FBECDBF8F87F6
:1012400080E065E041E00E94580C80E066E040E00C
:101250000E94580C83E06F850E94680E80E067E072
:1012600041E00E94580C80E090E0A0E0B0E48B8761
:101270009C87AD87BE876B857C858D859E8520E0AC
:1012800030E04AEF54E40E941F02DC01CB018F835F
:101290009887A987BA876F81788589859A8520E0A4
:1012A00030E040E85FE30E94790388232CF481E07A
:1012B00090E09E838D833FC06F81788589859A8574
:1012C00020E03FEF4FE757E40E94190318164CF552
:1012D0006B857C858D859E8520E030E040E251E481
:1012E0000E941F02DC01CB01BC01CD010E9449001C
:1012F000DC01CB019E838D830FC088EC90E09C8342
:101300008B838B819C810197F1F79C838B838D81EB
:101310009E8101979E838D838D819E81009769F7C1
:1013200014C06F81788589859A850E944900DC0107
:10133000CB019E838D838D819E819A838983898150
:101340009A810197F1F79A83898380E067E040E012
:101350000E94580C2F960FB6F894DEBF0FBECDBF7B
:10136000CF91DF910895DF93CF93CDB7DEB72E975E
:101370000FB6F894DEBF0FBECDBF80E090E0A0E2D4
:10138000B2E48B879C87AD87BE876B857C858D8516
:101390009E8520E030E04AEF54E40E941F02DC0109
:1013A000CB018F839887A987BA876F8178858985D4
:1013B0009A8520E030E040E85FE30E9479038823CB
:1013C0002CF481E090E09E838D833FC06F8178850F
:1013D00089859A8520E03FEF4FE757E40E94190383
:1013E00018164CF56B857C858D859E8520E030E058
:1013F00040E251E40E941F02DC01CB01BC01CD019F
:101400000E944900DC01CB019E838D830FC088ECD4
:1014100090E09C838B838B819C810197F1F79C8367
:101420008B838D819E8101979E838D838D819E818B
:10143000009769F714C06F81788589859A850E9425
:101440004900DC01CB019E838D838D819E819A832F
:10145000898389819A810197F1F79A83898388E347
:101460000E9477088CE00E94770881E00E9477084C
:101470002E960FB6F894DEBF0FBECDBFCF91DF9191
:101480000895DF93CF9300D00F92CDB7DEB79B8343
:101490008A8319820EC08981282F30E08A819B813E
:1014A000FC01E20FF31F80810E94150989818F5F83
:1014B00089838981282F30E08A819B81FC01E20F9A
:1014C000F31F8081882339F70F900F900F90CF91F1
:1014D000DF910895DF93CF9300D00F92CDB7DEB7A1
:1014E0008A836B8319828A81882319F48B8189838B
:1014F00006C08A81813019F48B81805C898389815F
:1015000080580E9477080F900F900F90CF91DF9135
:101510000895DF93CF93CDB7DEB727970FB6F89432
:10152000DEBF0FBECDBF9C838B836D834E832F8325
:101530001A828D81882F90E0880F991F880F991F3C
:10154000880F991F8A838A81805C0E94770819829C
:101550000EC08981282F30E08B819C81FC01E20F35
:10156000F31F80810E94150989818F5F898389819A
:10157000883078F38E816F810E946A0A8D810E9483
:10158000150927960FB6F894DEBF0FBECDBFCF91D9
:10159000DF910895DF93CF9300D000D0CDB7DEB7B1
:1015A0009C838B831A828B819C818A30910590F178
:1015B0008B819C818436910568F51DC08B819C814F
:1015C0002AE030E0B9010E94A02389838A81882F14
:1015D00090E0FC01E059FE4F898180838B819C81E2
:1015E0002AE030E0B9010E94A023CB019C838B83C9
:1015F0008A818F5F8A838B819C810097F9F6809125
:101600007101805D0E94150980917001805D0E94CA
:10161000150989C08B819C8184369105C0F18B812D
:101620009C8123E0883E920790F51DC08B819C81B0
:101630002AE030E0B9010E94A02389838A81882FA3
:1016400090E0FC01E359FE4F898180838B819C816E
:101650002AE030E0B9010E94A023CB019C838B8358
:101660008A818F5F8A838B819C810097F9F68091B4
:101670006F01805D0E94150980916E01805D0E945E
:10168000150980916D01805D0E9415094CC08B8108
:101690009C8123E0883E9207E8F18B819C8127E2C0
:1016A00080319207B8F51DC08B819C812AE030E023
:1016B000B9010E94A02389838A81882F90E0FC01D0
:1016C000E759FE4F898180838B819C812AE030E03D
:1016D000B9010E94A023CB019C838B838A818F5FF9
:1016E0008A838B819C810097F9F680916C01805DE3
:1016F0000E94150980916B01805D0E9415098091FF
:101700006A01805D0E94150980916901805D0E94D7
:10171000150909C08B819C818A30910520F48B8149
:10172000805D0E9415090F900F900F900F90CF9140
:10173000DF910895DF93CF9300D00F92CDB7DEB73E
:101740008A836B8381E089838A818130B9F481E067
:101750006FEF0E94AC0E8B81843029F481E068E049
:101760000E94680E41C08B81853029F481E060E0E1
:101770000E94680E39C082E0898336C08A81823037
:10178000B9F481E06FEF0E94AC0E8B81843029F4B4
:1017900081E060E10E94680E27C08B81853029F4CA
:1017A00081E060E00E94680E1FC082E089831CC057
:1017B0008A818330B9F481E06FEF0E94AC0E8B8197
:1017C000843029F481E068E00E94680E0DC08B81AE
:1017D000853029F481E060E00E94680E05C082E057
:1017E000898302C082E0898389810F900F900F90D6
:1017F000CF91DF910895DF93CF9300D000D0CDB784
:10180000DEB78A836B834C8381E089838B8181304F
:1018100009F58A81813049F48A8163E041E00E94C0
:10182000600D8C810E9416113BC08A81833079F44F
:101830008A8165E041E00E94600D80E091E00E94B5
:1018400071118C81882F90E00E94831129C082E061
:10185000898326C08B81823009F58A81813049F4E1
:101860008A8163E041E00E94600D8C810E94161124
:1018700017C08A81833079F48A8165E041E00E9453
:10188000600D80E091E00E9471118C81882F90E0C2
:101890000E94831105C082E0898302C082E08983AF
:1018A00089810F900F900F900F90CF91DF91089545
:1018B000DF93CF93CDB7DEB727970FB6F894DEBF8F
:1018C0000FBECDBF89836A834B838981843008F042
:1018D000EEC08A81883008F0EAC08B81813009F03F
:1018E0006FC08981282F30E03F832E838E819F81B6
:1018F0008130910549F12E813F81223031052CF450
:101900008E819F81009761F0D2C02E813F8122306D
:10191000310571F18E819F8183309105E9F1C7C056
:10192000ABE3B0E0EBE3F0E08081482F8A81282F21
:1019300030E081E090E0022E02C0880F991F0A94E7
:10194000E2F7842B8C93B3C0A8E3B0E0E8E3F0E0C7
:101950008081482F8A81282F30E081E090E0022E9C
:1019600002C0880F991F0A94E2F7842B8C939FC0C2
:10197000A5E3B0E0E5E3F0E08081482F8A81282FDD
:1019800030E081E090E0022E02C0880F991F0A9497
:10199000E2F7842B8C938BC0A2E3B0E0E2E3F0E0AB
:1019A0008081482F8A81282F30E081E090E0022E4C
:1019B00002C0880F991F0A94E2F7842B8C9377C09A
:1019C0008B81882309F073C08981282F30E03D8303
:1019D0002C838C819D818130910559F12C813D8131
:1019E000223031052CF48C819D81009769F05FC015
:1019F0002C813D812230310589F18C819D8183309C
:101A0000910509F440C053C0ABE3B0E0EBE3F0E074
:101A10008081482F8A81282F30E081E090E0022EDB
:101A200002C0880F991F0A94E2F7809584238C9353
:101A30003EC0A8E3B0E0E8E3F0E08081482F8A816F
:101A4000282F30E081E090E0022E02C0880F991F1D
:101A50000A94E2F7809584238C9329C0A5E3B0E033
:101A6000E5E3F0E08081482F8A81282F30E081E093
:101A700090E0022E02C0880F991F0A94E2F7809529
:101A800084238C9314C0A2E3B0E0E2E3F0E0808111
:101A9000482F8A81282F30E081E090E0022E02C09A
:101AA000880F991F0A94E2F7809584238C932796D8
:101AB0000FB6F894DEBF0FBECDBFCF91DF91089572
:101AC000DF93CF93CDB7DEB727970FB6F894DEBF7D
:101AD0000FBECDBF89836A834B838981843008F030
:101AE000EEC08A81883008F0EAC08B81813009F02D
:101AF0006FC08981282F30E03F832E838E819F81A4
:101B00008130910549F12E813F81223031052CF43D
:101B10008E819F81009761F0D2C02E813F8122305B
:101B2000310571F18E819F8183309105E9F1C7C044
:101B3000AAE3B0E0EAE3F0E08081482F8A81282F11
:101B400030E081E090E0022E02C0880F991F0A94D5
:101B5000E2F7842B8C93B3C0A7E3B0E0E7E3F0E0B7
:101B60008081482F8A81282F30E081E090E0022E8A
:101B700002C0880F991F0A94E2F7842B8C939FC0B0
:101B8000A4E3B0E0E4E3F0E08081482F8A81282FCD
:101B900030E081E090E0022E02C0880F991F0A9485
:101BA000E2F7842B8C938BC0A1E3B0E0E1E3F0E09B
:101BB0008081482F8A81282F30E081E090E0022E3A
:101BC00002C0880F991F0A94E2F7842B8C9377C088
:101BD0008B81882309F073C08981282F30E03D83F1
:101BE0002C838C819D818130910559F12C813D811F
:101BF000223031052CF48C819D81009769F05FC003
:101C00002C813D812230310589F18C819D81833089
:101C1000910509F440C053C0AAE3B0E0EAE3F0E064
:101C20008081482F8A81282F30E081E090E0022EC9
:101C300002C0880F991F0A94E2F7809584238C9341
:101C40003EC0A7E3B0E0E7E3F0E08081482F8A815F
:101C5000282F30E081E090E0022E02C0880F991F0B
:101C60000A94E2F7809584238C9329C0A4E3B0E022
:101C7000E4E3F0E08081482F8A81282F30E081E082
:101C800090E0022E02C0880F991F0A94E2F7809517
:101C900084238C9314C0A1E3B0E0E1E3F0E0808101
:101CA000482F8A81282F30E081E090E0022E02C088
:101CB000880F991F0A94E2F7809584238C932796C6
:101CC0000FB6F894DEBF0FBECDBFCF91DF91089560
:101CD000DF93CF9300D000D0CDB7DEB789836A837E
:101CE0008981843090F58981282F30E03C832B83D3
:101CF0008B819C8181309105D1F02B813C812230F8
:101D000031052CF48B819C81009761F01EC02B81E2
:101D10003C812230310581F08B819C81833091059B
:101D200081F013C0EBE3F0E08A8180830EC0E8E32A
:101D3000F0E08A81808309C0E5E3F0E08A81808356
:101D400004C0E2E3F0E08A8180830F900F900F904F
:101D50000F90CF91DF910895DF93CF9300D000D003
:101D6000CDB7DEB789836A838981843090F5898114
:101D7000282F30E03C832B838B819C81813091051F
:101D8000D1F02B813C81223031052CF48B819C8158
:101D9000009761F01EC02B813C812230310581F01B
:101DA0008B819C818330910581F013C0EAE3F0E0E0
:101DB0008A8180830EC0E7E3F0E08A81808309C0D6
:101DC000E4E3F0E08A81808304C0E1E3F0E08A810B
:101DD00080830F900F900F900F90CF91DF91089517
:101DE000DF93CF93CDB7DEB727970FB6F894DEBF5A
:101DF0000FBECDBF8A836B835D834C8319828C8138
:101E00009D81009709F478C08B81883008F074C0F8
:101E10008A81282F30E03F832E834E815F814130BD
:101E2000510559F18E819F818230910534F42E81C4
:101E30003F812115310569F05CC04E815F814230E0
:101E4000510579F18E819F818330910509F43DC060
:101E500050C0E9E3F0E08081282F30E08B81882FAB
:101E600090E0A90102C0559547958A95E2F7CA010D
:101E70008170EC81FD81808341C0E6E3F0E08081E8
:101E8000282F30E08B81882F90E0A90102C0559562
:101E900047958A95E2F7CA018170EC81FD818083C4
:101EA0002DC0E3E3F0E08081282F30E08B81882F84
:101EB00090E0A90102C0559547958A95E2F7CA01BD
:101EC0008170EC81FD81808319C0E0E3F0E08081C6
:101ED000282F30E08B81882F90E0A90102C0559512
:101EE00047958A95E2F7CA018170EC81FD81808374
:101EF00005C081E0898302C081E0898389812796BA
:101F00000FB6F894DEBF0FBECDBFCF91DF9108951D
:101F1000DF93CF93CDB7DEB7A4E5B0E0E4E5F0E022
:101F200080818F7B8C93ABE5B0E0EBE5F0E08081C6
:101F300080628C93CF91DF910895DF93CF9300D08F
:101F40000F92CDB7DEB79B838A8381E089838A8134
:101F50009B818330910539F08A819B819093370171
:101F60008093360102C083E0898389810F900F90AE
:101F70000F90CF91DF910895DF93CF9300D00F9210
:101F8000CDB7DEB79B838A8381E089838A819B8179
:101F90008330910539F08A819B8190933901809338
:101FA000380102C083E0898389810F900F900F90E0
:101FB000CF91DF9108951F920F920FB60F921124C7
:101FC0002F933F934F935F936F937F938F939F9341
:101FD000AF93BF93EF93FF93DF93CF93CDB7DEB76C
:101FE00080913601909137018330910529F0E0917D
:101FF0003601F09137010995CF91DF91FF91EF9173
:10200000BF91AF919F918F917F916F915F914F9110
:102010003F912F910F900FBE0F901F9018951F9218
:102020000F920FB60F9211242F933F934F935F930C
:102030006F937F938F939F93AF93BF93EF93FF9390
:10204000DF93CF93CDB7DEB78091380190913901FE
:102050008330910529F0E0913801F091390109951B
:10206000CF91DF91FF91EF91BF91AF919F918F91B0
:102070007F916F915F914F913F912F910F900FBE84
:102080000F901F901895DF93CF93CDB7DEB7AFE5D4
:10209000B0E0EFE5F0E0808180688C93CF91DF9134
:1020A0000895DF93CF93CDB7DEB7AFE5B0E0EFE5AE
:1020B000F0E0808180688C93CF91DF910895DF9369
:1020C000CF93CDB7DEB7AFE5B0E0EFE5F0E08081CC
:1020D0008F778C93CF91DF910895DF93CF9300D0CA
:1020E00000D00F92CDB7DEB78FEF8B8319825EC021
:1020F0008981882F90E0FC01E25CFE4F908182E0B4
:10210000692F40E00E94580C1A823DC08A81882FB6
:1021100090E0FC01E65CFE4F90819E012C5F3F4FFA
:1021200082E0692FA9010E94F00E8C81882341F57D
:102130008A81482F50E08981282F30E0CA01880F1A
:10214000991F880F991F820F931FFC01EE5BFE4FB2
:1021500080818B830FC08A81882F90E0FC01E65C30
:10216000FE4F90819E012C5F3F4F82E0692FA901B5
:102170000E94F00E8C81882371F38B818D831CC0AB
:102180008A818F5F8A838A81843008F4BFCF8981F6
:10219000882F90E0FC01E25CFE4F908182E0692F85
:1021A00041E00E94580C89818F5F89838981843046
:1021B00008F49ECF8B818D838D810F900F900F90AF
:1021C0000F900F90CF91DF910895DF93CF93CDB70C
:1021D000DEB7A3E5B0E0E3E5F0E0808180648C93B6
:1021E000A3E5B0E0E3E5F0E0808188608C93A3E5AF
:1021F000B0E0E3E5F0E0808180628C93A3E5B0E09D
:10220000E3E5F0E080818F7E8C93A3E5B0E0E3E529
:10221000F0E08081887F8C93A3E5B0E0E3E5F0E017
:10222000808182608C93CF91DF910895DF93CF936B
:102230000F92CDB7DEB78983ECE5F0E0898180832A
:102240000F90CF91DF910895DF93CF93CDB7DEB795
:10225000AEE4B0E0EEE4F0E0808180618C93AEE427
:10226000B0E0EEE4F0E0808188608C93AFE4B0E011
:10227000EFE4F0E0808182608C93AFE4B0E0EFE4C3
:10228000F0E080818E7F8C93AFE4B0E0EFE4F0E08B
:10229000808180688C93AFE4B0E0EFE4F0E080816F
:1022A0008F7B8C93AFE4B0E0EFE4F0E0808180625C
:1022B0008C93AFE4B0E0EFE4F0E080818F7E8C930C
:1022C000AEE4B0E0EEE4F0E08081887F8C93AEE491
:1022D000B0E0EEE4F0E0808182608C93CF91DF91FA
:1022E0000895DF93CF9300D0CDB7DEB79A8389836B
:1022F000E6E4F0E089819A81918380830F900F90CA
:10230000CF91DF910895DF93CF9300D0CDB7DEB7A3
:102310009A838983EAE4F0E089819A8191838083BA
:102320000F900F90CF91DF910895DF93CF9300D05E
:10233000CDB7DEB79A838983E8E4F0E089819A819A
:10234000918380830F900F90CF91DF910895DF9359
:10235000CF930F92CDB7DEB78983E3E2F0E082E05E
:102360008083A1E2B0E0E1E2F0E080818E7F8C9397
:10237000A1E2B0E0E1E2F0E080818D7F8C93898181
:10238000882329F0E2E2F0E08981880F8083A6E5C6
:10239000B0E0E6E5F0E0808184608C930F90CF910F
:1023A000DF910895DF93CF930F92CDB7DEB7898386
:1023B000E2E2F0E08981880F8083A6E5B0E0E6E5FF
:1023C000F0E0808184608C930F90CF91DF9108952D
:1023D000DF93CF930F92CDB7DEB71982A6E5B0E0B9
:1023E000E6E5F0E0808180628C93A6E5B0E0E6E56A
:1023F000F0E0808180688C93E6E5F0E080818823BE
:10240000DCF3E1E2F0E08081882F90E0887F90703B
:102410008830910511F081E0898389810F90CF91F7
:10242000DF910895DF93CF930F92CDB7DEB7198276
:10243000A6E5B0E0E6E5F0E0808180628C93A6E559
:10244000B0E0E6E5F0E0808180688C93E6E5F0E0BE
:1024500080818823DCF3E1E2F0E08081882F90E046
:10246000887F90708031910511F082E089838981A5
:102470000F90CF91DF910895DF93CF9300D0CDB728
:10248000DEB78A831982A6E5B0E0E6E5F0E0808158
:102490008F7D8C93E3E2F0E08A81880F8083A3E252
:1024A000B0E0E3E2F0E080818E7F8C93E1E2F0E047
:1024B0008081882F90E0887F90708831910511F09D
:1024C00083E0898389810F900F90CF91DF910895E8
:1024D000DF93CF9300D0CDB7DEB78A831982A6E50C
:1024E000B0E0E6E5F0E080818F7D8C93E3E2F0E000
:1024F0008A81880F8083A3E2B0E0E3E2F0E080818C
:1025000081608C93E1E2F0E08081882F90E0887F09
:1025100090708034910511F084E0898389810F9057
:102520000F90CF91DF910895DF93CF9300D0CDB777
:10253000DEB78A831982E3E2F0E08A818083A6E530
:10254000B0E0E6E5F0E0808180688C93E6E5F0E0BD
:1025500080818823DCF3E1E2F0E08081882F90E045
:10256000887F90708832910511F085E08983898198
:102570000F900F90CF91DF910895DF93CF9300D00C
:102580000F92CDB7DEB79B838A831982A6E5B0E0B0
:10259000E6E5F0E0808180648C93A6E5B0E0E6E5B6
:1025A000F0E0808180688C93E6E5F0E0808188230C
:1025B000DCF3E1E2F0E08081882F90E0887F90708A
:1025C0008035910519F086E0898306C0E3E2F0E0EA
:1025D0008081EA81FB81808389810F900F900F9029
:1025E000CF91DF910895DF93CF93CDB7DEB7A6E506
:1025F000B0E0E6E5F0E0808180618C93A6E5B0E094
:10260000E6E5F0E0808180688C93CF91DF910895BA
:10261000DF93CF93CDB7DEB783E06FEF0E94AC0EB0
:1026200080E065E041E00E94600D80E066E041E00E
:102630000E94600D80E067E041E00E94600D82E052
:102640006FE00E94AC0E82E06FEF0E94680E80E0A7
:1026500060E040E00E94600D80E061E041E00E94A7
:10266000600D80E062E041E00E94600D80E063E088
:1026700041E00E94600D81E063E041E00E94600D56
:1026800080E064E041E00E94600D81E062E040E0B3
:102690000E94600D81E062E041E00E94580C0E94BF
:1026A000B3090E94A30584E992E20E94BC0F0E9434
:1026B000E5100E94880F0E945110CF91DF9108957C
:1026C000DF93CF93CDB7DEB7E8970FB6F894DEBFB0
:1026D0000FBECDBF80E690E00E94410A80E090E00E
:1026E000AAEFB4E48DAB9EABAFABB8AF6DA97EA93A
:1026F0008FA998AD20E030E04AEF54E40E941F0219
:10270000DC01CB0189AB9AABABABBCAB69A97AA9B5
:102710008BA99CA920E030E040E85FE30E947903A8
:1027200088232CF481E090E098AB8FA73FC069A983
:102730007AA98BA99CA920E03FEF4FE757E40E94BC
:10274000190318164CF56DA97EA98FA998AD20E044
:1027500030E040E251E40E941F02DC01CB01BC01E9
:10276000CD010E944900DC01CB0198AB8FA70FC0BF
:1027700088EC90E09EA78DA78DA59EA50197F1F707
:102780009EA78DA78FA598A9019798AB8FA78FA516
:1027900098A9009769F714C069A97AA98BA99CA97F
:1027A0000E944900DC01CB0198AB8FA78FA598A9A7
:1027B0009CA78BA78BA59CA50197F1F79CA78BA73E
:1027C00081E00E94770880E090E0AAEFB4E48FA354
:1027D00098A7A9A7BAA76FA178A589A59AA520E06F
:1027E00030E04AEF54E40E941F02DC01CB018BA3CE
:1027F0009CA3ADA3BEA36BA17CA18DA19EA120E053
:1028000030E040E85FE30E94790388232CF481E004
:1028100090E09AA389A33FC06BA17CA18DA19EA14A
:1028200020E03FEF4FE757E40E94190318164CF5DC
:102830006FA178A589A59AA520E030E040E251E497
:102840000E941F02DC01CB01BC01CD010E944900A6
:10285000DC01CB019AA389A30FC088EC90E098A378
:102860008F8F8F8D98A10197F1F798A38F8F89A1F2
:102870009AA101979AA389A389A19AA1009769F7C0
:1028800014C06BA17CA18DA19EA10E944900DC0116
:10289000CB019AA389A389A19AA19E8F8D8F8D8D3B
:1028A0009E8D0197F1F79E8F8D8F8FE690E00E94AD
:1028B000410A80E090E0AAE7B4E4898F9A8FAB8F59
:1028C000BC8F698D7A8D8B8D9C8D20E030E04AEF36
:1028D00054E40E941F02DC01CB018D8B9E8BAF8BD9
:1028E000B88F6D897E898F89988D20E030E040E82F
:1028F0005FE30E94790388232CF481E090E09C8BB5
:102900008B8B3FC06D897E898F89988D20E03FEF4A
:102910004FE757E40E94190318164CF5698D7A8D1C
:102920008B8D9C8D20E030E040E251E40E941F023C
:10293000DC01CB01BC01CD010E944900DC01CB01CF
:102940009C8B8B8B0FC088EC90E09A8B898B89894C
:102950009A890197F1F79A8B898B8B899C890197CA
:102960009C8B8B8B8B899C89009769F714C06D8930
:102970007E898F89988D0E944900DC01CB019C8B58
:102980008B8B8B899C89988B8F878F8598890197F2
:10299000F1F7988B8F8781E060E00E946A0A80E8F7
:1029A00090E00E94410A80E090E8ABE3B5E48B87B9
:1029B0009C87AD87BE876B857C858D859E8520E055
:1029C00030E04AEF54E40E941F02DC01CB018F8308
:1029D0009887A987BA876F81788589859A8520E04D
:1029E00030E040E85FE30E94790388232CF481E023
:1029F00090E09E838D833FC06F81788589859A851D
:102A000020E03FEF4FE757E40E94190318164CF5FA
:102A10006B857C858D859E8520E030E040E251E429
:102A20000E941F02DC01CB01BC01CD010E944900C4
:102A3000DC01CB019E838D830FC088EC90E09C83EA
:102A40008B838B819C810197F1F79C838B838D8194
:102A50009E8101979E838D838D819E81009769F76A
:102A600014C06F81788589859A850E944900DC01B0
:102A7000CB019E838D838D819E819A8389838981F9
:102A80009A810197F1F79A83898381E00E94770800
:102A9000E8960FB6F894DEBF0FBECDBFCF91DF91A1
:102AA0000895DF93CF93CDB7DEB72F970FB6F89485
:102AB000DEBF0FBECDBF8FE890E00E94410A81E0EB
:102AC00060E00E946A0A89E990E00E94410A0E943F
:102AD0006D108F878F858F3FD1F38F858B3261F497
:102AE00080917301882341F481E00E94770888EA8D
:102AF00090E00E94410AEBCF8F858D32A1F4809146
:102B00007301882381F481E00E9477088FE890E0C8
:102B10000E94410A81E060E00E946A0A89E990E02F
:102B20000E94410AD4CF8F85843459F40E94AD1E8F
:102B30002F960FB6F894DEBF0FBECDBFCF91DF91B9
:102B400008951092730181E00E94770884EB90E071
:102B50000E94410A80E090E0AAEFB4E48B879C8752
:102B6000AD87BE876B857C858D859E8520E030E0B6
:102B70004AEF54E40E941F02DC01CB018F83988747
:102B8000A987BA876F81788589859A8520E030E0AA
:102B900040E85FE30E94790388232CF481E090E011
:102BA0009E838D833FC06F81788589859A8520E0DB
:102BB0003FEF4FE757E40E94190318164CF56B8559
:102BC0007C858D859E8520E030E040E251E40E94C6
:102BD0001F02DC01CB01BC01CD010E944900DC01D8
:102BE000CB019E838D830FC088EC90E09C838B8308
:102BF0008B819C810197F1F79C838B838D819E81D2
:102C000001979E838D838D819E81009769F714C003
:102C10006F81788589859A850E944900DC01CB0106
:102C20009E838D838D819E819A83898389819A81F8
:102C30000197F1F79A83898381E00E9477088FE8F2
:102C400090E00E94410A81E060E00E946A0A89E9FE
:102C500090E00E94410A3BCFDF93CF93CDB7DEB720
:102C60006D970FB6F894DEBF0FBECDBF81E00E9416
:102C7000770883EC90E00E94410A80E06CE00E94BB
:102C80006A0A80917201813019F5109276011092D2
:102C9000720110927301109275018DE080935201C0
:102CA00080E063E040E00E94580C80E062E040E099
:102CB0000E94580C80E061E040E00E94580C80E0E7
:102CC0000E94161181E00E9477080E94511506C0EB
:102CD0000E946D108D8F8D8D8F3F99F28D8D882381
:102CE00009F06FC080917501882399F59091520188
:102CF00080E0692F0E946A0A8D8D805D0E9415090F
:102D0000809152018D3041F48D8D882F90E0909309
:102D10007E0180937D0117C080917D0190917E019D
:102D20009C01220F331FC901880F991F880F991F1B
:102D3000280F391F8D8D882F90E0820F931F90935D
:102D40007E0180937D01809152018F5F80935201BB
:102D500098CF80917501813009F093CF9091520105
:102D600081E0692F0E946A0A8D8D805D0E9415099D
:102D7000809152018D3041F48D8D882F90E0909399
:102D800082018093810117C080918101909182011D
:102D90009C01220F331FC901880F991F880F991FAB
:102DA000280F391F8D8D882F90E0820F931F9093ED
:102DB000820180938101809152018F5F8093520143
:102DC00060CF8D8D813009F06FC0809175018823AF
:102DD00099F59091520180E0692F0E946A0A8D8DC9
:102DE000805D0E941509809152018D3041F48D8DD6
:102DF000882F90E090937E0180937D0117C0809191
:102E00007D0190917E019C01220F331FC901880F23
:102E1000991F880F991F280F391F8D8D882F90E0DB
:102E2000820F931F90937E0180937D0180915201C8
:102E30008F5F8093520125CF80917501813009F019
:102E400020CF9091520181E0692F0E946A0A8D8DF6
:102E5000805D0E941509809152018D3041F48D8D65
:102E6000882F90E0909382018093810117C0809118
:102E70008101909182019C01220F331FC901880FAB
:102E8000991F880F991F280F391F8D8D882F90E06B
:102E9000820F931F90938201809381018091520150
:102EA0008F5F80935201EDCE8D8D823009F06FC01F
:102EB00080917501882399F59091520180E0692FE6
:102EC0000E946A0A8D8D805D0E94150980915201D1
:102ED0008D3041F48D8D882F90E090937E0180930A
:102EE0007D0117C080917D0190917E019C01220F90
:102EF000331FC901880F991F880F991F280F391F89
:102F00008D8D882F90E0820F931F90937E01809388
:102F10007D01809152018F5F80935201B2CE8091EA
:102F20007501813009F0ADCE9091520181E0692F99
:102F30000E946A0A8D8D805D0E9415098091520160
:102F40008D3041F48D8D882F90E090938201809395
:102F5000810117C080918101909182019C01220F13
:102F6000331FC901880F991F880F991F280F391F18
:102F70008D8D882F90E0820F931F90938201809314
:102F80008101809152018F5F809352017ACE8D8DA5
:102F9000833009F06FC080917501882399F5909175
:102FA000520180E0692F0E946A0A8D8D805D0E9427
:102FB0001509809152018D3041F48D8D882F90E05C
:102FC00090937E0180937D0117C080917D01909147
:102FD0007E019C01220F331FC901880F991F880FA2
:102FE000991F280F391F8D8D882F90E0820F931F16
:102FF00090937E0180937D01809152018F5F809339
:1030000052013FCE80917501813009F03ACE909106
:10301000520181E0692F0E946A0A8D8D805D0E94B5
:103020001509809152018D3041F48D8D882F90E0EB
:10303000909382018093810117C0809181019091CA
:1030400082019C01220F331FC901880F991F880F2D
:10305000991F280F391F8D8D882F90E0820F931FA5
:103060009093820180938101809152018F5F8093C0
:10307000520107CE8D8D843009F06FC080917501AB
:10308000882399F59091520180E0692F0E946A0A85
:103090008D8D805D0E941509809152018D3041F423
:1030A0008D8D882F90E090937E0180937D0117C0D5
:1030B00080917D0190917E019C01220F331FC901F7
:1030C000880F991F880F991F280F391F8D8D882F02
:1030D00090E0820F931F90937E0180937D018091F9
:1030E00052018F5F80935201CCCD80917501813068
:1030F00009F0C7CD9091520181E0692F0E946A0AC0
:103100008D8D805D0E941509809152018D3041F4B2
:103110008D8D882F90E0909382018093810117C05C
:1031200080918101909182019C01220F331FC9017E
:10313000880F991F880F991F280F391F8D8D882F91
:1031400090E0820F931F9093820180938101809180
:1031500052018F5F8093520194CD8D8D853009F09F
:103160006FC080917501882399F59091520180E09C
:10317000692F0E946A0A8D8D805D0E9415098091D9
:1031800052018D3041F48D8D882F90E090937E0117
:1031900080937D0117C080917D0190917E019C01FB
:1031A000220F331FC901880F991F880F991F280FFD
:1031B000391F8D8D882F90E0820F931F90937E0191
:1031C00080937D01809152018F5F8093520159CD90
:1031D00080917501813009F054CD9091520181E0C8
:1031E000692F0E946A0A8D8D805D0E941509809169
:1031F00052018D3041F48D8D882F90E090938201A3
:103200008093810117C080918101909182019C017E
:10321000220F331FC901880F991F880F991F280F8C
:10322000391F8D8D882F90E0820F931F909382011C
:1032300080938101809152018F5F8093520121CD53
:103240008D8D863009F06FC080917501882399F5C6
:103250009091520180E0692F0E946A0A8D8D805DF5
:103260000E941509809152018D3041F48D8D882F77
:1032700090E090937E0180937D0117C080917D0145
:1032800090917E019C01220F331FC901880F991F65
:10329000880F991F280F391F8D8D882F90E0820F7E
:1032A000931F90937E0180937D01809152018F5FE7
:1032B00080935201E6CC80917501813009F0E1CC18
:1032C0009091520181E0692F0E946A0A8D8D805D84
:1032D0000E941509809152018D3041F48D8D882F07
:1032E00090E0909382018093810117C080918101C9
:1032F000909182019C01220F331FC901880F991FF1
:10330000880F991F280F391F8D8D882F90E0820F0D
:10331000931F9093820180938101809152018F5F6E
:1033200080935201AECC8D8D873009F06FC08091B3
:103330007501882399F59091520180E0692F0E94D0
:103340006A0A8D8D805D0E941509809152018D3031
:1033500041F48D8D882F90E090937E0180937D01C4
:1033600017C080917D0190917E019C01220F331F37
:10337000C901880F991F880F991F280F391F8D8D3C
:10338000882F90E0820F931F90937E0180937D01A0
:10339000809152018F5F8093520173CC80917501AF
:1033A000813009F06ECC9091520181E0692F0E942A
:1033B0006A0A8D8D805D0E941509809152018D30C1
:1033C00041F48D8D882F90E090938201809381014C
:1033D00017C080918101909182019C01220F331FBF
:1033E000C901880F991F880F991F280F391F8D8DCC
:1033F000882F90E0820F931F909382018093810128
:10340000809152018F5F809352013BCC8D8D88302B
:1034100009F06FC080917501882399F59091520150
:1034200080E0692F0E946A0A8D8D805D0E941509D7
:10343000809152018D3041F48D8D882F90E09093D2
:103440007E0180937D0117C080917D0190917E0166
:103450009C01220F331FC901880F991F880F991FE4
:10346000280F391F8D8D882F90E0820F931F909326
:103470007E0180937D01809152018F5F8093520184
:1034800000CC80917501813009F0FBCB9091520105
:1034900081E0692F0E946A0A8D8D805D0E94150966
:1034A000809152018D3041F48D8D882F90E0909362
:1034B00082018093810117C08091810190918201E6
:1034C0009C01220F331FC901880F991F880F991F74
:1034D000280F391F8D8D882F90E0820F931F9093B6
:1034E000820180938101809152018F5F809352010C
:1034F000C8CB8D8D893009F06FC08091750188230C
:1035000099F59091520180E0692F0E946A0A8D8D91
:10351000805D0E941509809152018D3041F48D8D9E
:10352000882F90E090937E0180937D0117C0809159
:103530007D0190917E019C01220F331FC901880FEC
:10354000991F880F991F280F391F8D8D882F90E0A4
:10355000820F931F90937E0180937D018091520191
:103560008F5F809352018DCB80917501813009F07E
:1035700088CB9091520181E0692F0E946A0A8D8D5B
:10358000805D0E941509809152018D3041F48D8D2E
:10359000882F90E0909382018093810117C08091E1
:1035A0008101909182019C01220F331FC901880F74
:1035B000991F880F991F280F391F8D8D882F90E034
:1035C000820F931F90938201809381018091520119
:1035D0008F5F8093520155CB8D8D853409F051CB8F
:1035E000809176018823A1F4809176018F5F80938A
:1035F000760181E08093750181E060E00E946A0AB3
:1036000081ED90E00E94410A8DE08093520139CB18
:10361000109276011092720110927301109275014E
:103620008DE08093520180917D0190917E0160E058
:1036300070E00E949E2280E090E0A0E2B1E4898FD9
:103640009A8FAB8FBC8F698D7A8D8B8D9C8D20E08E
:1036500030E04AEF54E40E941F02DC01CB018D8B65
:103660009E8BAF8BB88F6D897E898F89988D20E076
:1036700030E040E85FE30E94790388232CF481E086
:1036800090E09C8B8B8B3FC06D897E898F89988D54
:1036900020E03FEF4FE757E40E94190318164CF55E
:1036A000698D7A8D8B8D9C8D20E030E040E251E475
:1036B0000E941F02DC01CB01BC01CD010E94490028
:1036C000DC01CB019C8B8B8B0FC088EC90E09A8B3C
:1036D000898B89899A890197F1F79A8B898B8B89D4
:1036E0009C8901979C8B8B8B8B899C89009769F7B0
:1036F00014C06D897E898F89988D0E944900DC01F4
:10370000CB019C8B8B8B8B899C89988B8F878F852A
:1037100098890197F1F7988B8F878091810190911B
:10372000820161E070E00E949E2280E090E0A0E2D1
:10373000B1E48B879C87AD87BE876B857C858D8543
:103740009E8520E030E04AEF54E40E941F02DC0135
:10375000CB018F839887A987BA876F817885898500
:103760009A8520E030E040E85FE30E9479038823F7
:103770002CF481E090E09E838D833FC06F8178853B
:1037800089859A8520E03FEF4FE757E40E941903AF
:1037900018164CF56B857C858D859E8520E030E084
:1037A00040E251E40E941F02DC01CB01BC01CD01CB
:1037B0000E944900DC01CB019E838D830FC088EC01
:1037C00090E09C838B838B819C810197F1F79C8394
:1037D0008B838D819E8101979E838D838D819E81B8
:1037E000009769F714C06F81788589859A850E9452
:1037F0004900DC01CB019E838D838D819E819A835C
:10380000898389819A810197F1F79A83898381E07D
:103810000E9477080E9451156D960FB6F894DEBF8E
:103820000FBECDBFCF91DF910895DF93CF93CDB77A
:10383000DEB7EC970FB6F894DEBF0FBECDBF1AAE61
:1038400080917201813049F51092720110927301DA
:10385000109274018DE08093520180E063E040E0BB
:103860000E94580C80E062E040E00E94580C80E02A
:1038700061E040E00E94580C80E00E94161181E057
:103880000E9477080E945115EC960FB6F894DEBF9F
:103890000FBECDBFCF91DF910895CE01CB9660E0F2
:1038A00070E00E94BE22CE01CC9661E070E00E94E2
:1038B000BE228CAD282F30E0809177019091780165
:1038C0002817390708F48CC081E00E9477088FED33
:1038D00090E00E94410A80E090E0AAE7B4E48DAB5A
:1038E0009EABAFABB8AF6DA97EA98FA998AD20E014
:1038F00030E04AEF54E40E941F02DC01CB0189ABA7
:103900009AABABABBCAB69A97AA98BA99CA920E007
:1039100030E040E85FE30E94790388232CF481E0E3
:1039200090E098AB8FA73FC069A97AA98BA99CA901
:1039300020E03FEF4FE757E40E94190318164CF5BB
:103940006DA97EA98FA998AD20E030E040E251E456
:103950000E941F02DC01CB01BC01CD010E94490085
:10396000DC01CB0198AB8FA70FC088EC90E09EA73D
:103970008DA78DA59EA50197F1F79EA78DA78FA571
:1039800098A9019798AB8FA78FA598A9009769F779
:1039900014C069A97AA98BA99CA90E944900DC01DD
:1039A000CB0198AB8FA78FA598A99CA78BA78BA5B8
:1039B0009CA50197F1F79CA78BA780E00E941611A8
:1039C00080E063E041E00E94580C80E062E040E06B
:1039D0000E94580C80E061E040E00E94580C30CF1B
:1039E0008CAD282F30E080917701909178012817D5
:1039F000390708F097C08BAD282F30E08091770110
:103A0000909178012817390708F48CC081E00E9452
:103A1000770888EE90E00E94410A80E090E0AAE7F3
:103A2000B4E48FA398A7A9A7BAA76FA178A589A581
:103A30009AA520E030E04AEF54E40E941F02DC0126
:103A4000CB018BA39CA3ADA3BEA36BA17CA18DA135
:103A50009EA120E030E040E85FE30E9479038823E4
:103A60002CF481E090E09AA389A33FC06BA17CA1D4
:103A70008DA19EA120E03FEF4FE757E40E9419037C
:103A800018164CF56FA178A589A59AA520E030E01D
:103A900040E251E40E941F02DC01CB01BC01CD01D8
:103AA0000E944900DC01CB019AA389A30FC088ECD6
:103AB00090E098A38F8F8F8D98A10197F1F798A32D
:103AC0008F8F89A19AA101979AA389A389A19AA10D
:103AD000009769F714C06BA17CA18DA19EA10E94E3
:103AE0004900DC01CB019AA389A389A19AA19E8FE9
:103AF0008D8F8D8D9E8D0197F1F79E8F8D8F80E834
:103B00000E94161180E063E040E00E94580C80E0C3
:103B100062E041E00E94580C80E061E040E00E94D9
:103B2000580C8ECE8BAD282F30E08091770190918C
:103B300078012817390708F083CE81E00E947708C2
:103B40008FEE90E00E94410A80E090E0AAE7B4E4A2
:103B5000898F9A8FAB8FBC8F698D7A8D8B8D9C8D61
:103B600020E030E04AEF54E40E941F02DC01CB0168
:103B70008D8B9E8BAF8BB88F6D897E898F89988D49
:103B800020E030E040E85FE30E94790388232CF4D2
:103B900081E090E09C8B8B8B3FC06D897E898F8903
:103BA000988D20E03FEF4FE757E40E941903181665
:103BB0004CF5698D7A8D8B8D9C8D20E030E040E254
:103BC00051E40E941F02DC01CB01BC01CD010E9427
:103BD0004900DC01CB019C8B8B8B0FC088EC90E003
:103BE0009A8B898B89899A890197F1F79A8B898BAE
:103BF0008B899C8901979C8B8B8B8B899C890097E7
:103C000069F714C06D897E898F89988D0E9449005B
:103C1000DC01CB019C8B8B8B8B899C89988B8F874C
:103C20008F8598890197F1F7988B8F878FEF0E9486
:103C3000161180E063E040E00E94580C80E062E0F2
:103C400040E00E94580C19AE83C08091720181300F
:103C500009F4F6CD9AAD81E089278AAF80E062E071
:103C60004AAD0E94580C80E090E0AAE7B4E48B874C
:103C70009C87AD87BE876B857C858D859E8520E082
:103C800030E04AEF54E40E941F02DC01CB018F8335
:103C90009887A987BA876F81788589859A8520E07A
:103CA00030E040E85FE30E94790388232CF481E050
:103CB00090E09E838D833FC06F81788589859A854A
:103CC00020E03FEF4FE757E40E94190318164CF528
:103CD0006B857C858D859E8520E030E040E251E457
:103CE0000E941F02DC01CB01BC01CD010E944900F2
:103CF000DC01CB019E838D830FC088EC90E09C8318
:103D00008B838B819C810197F1F79C838B838D81C1
:103D10009E8101979E838D838D819E81009769F797
:103D200014C06F81788589859A850E944900DC01DD
:103D3000CB019E838D838D819E819A838983898126
:103D40009A810197F1F79A83898389AD8F5F89AF53
:103D500089AD863008F479CF73CD0F931F93DF932D
:103D6000CF93CDB7DEB7C555D0400FB6F894DEBFC0
:103D70000FBECDBF81E00E9477088AEF90E00E94DD
:103D8000410A80E06CE00E946A0A809172018130F1
:103D900009F51092720110927301109274018DE076
:103DA0008093520180E063E040E00E94580C80E084
:103DB00062E040E00E94580C80E061E040E00E9438
:103DC000580C80E00E94161181E00E9477080E9442
:103DD00051150CC00E946D10FE01EB5AFF4F8083FD
:103DE000FE01EB5AFF4F80818F3F79F2FE01EB5AC3
:103DF000FF4F8081813009F050C1FE01EB5AFF4F27
:103E00008081882F90E00E94CA0AFE01EF5AFF4F7E
:103E100080E090E0AAE7B4E480839183A283B38337
:103E20008E01035B1F4FFE01EF5AFF4F60817181CE
:103E30008281938120E030E04AEF54E40E941F0227
:103E4000DC01CB01F80180839183A283B383FE015F
:103E5000E35BFF4F608171818281938120E030E0DC
:103E600040E85FE30E947903882344F4FE01E55BA8
:103E7000FF4F81E090E09183808364C0FE01E35BAB
:103E8000FF4F608171818281938120E03FEF4FE796
:103E900057E40E94190318160CF043C0FE01EF5AB4
:103EA000FF4F608171818281938120E030E040E2A8
:103EB00051E40E941F02DC01CB018E01055B1F4F04
:103EC000BC01CD010E944900DC01CB01F8019183C6
:103ED00080831FC0FE01E75BFF4F88EC90E0918379
:103EE0008083FE01E75BFF4F808191810197F1F7AD
:103EF000FE01E75BFF4F91838083DE01A55BBF4F2F
:103F0000FE01E55BFF4F80819181019711969C93A3
:103F10008E93FE01E55BFF4F808191810097D1F682
:103F200027C08E01055B1F4FFE01E35BFF4F6081E1
:103F30007181828193810E944900DC01CB01F801EB
:103F400091838083DE01A95BBF4FFE01E55BFF4FDC
:103F5000808191818D939C93FE01E95BFF4F80816D
:103F600091810197F1F7FE01E95BFF4F9183808317
:103F700081E00E94770886E091E00E94410AFE01FC
:103F8000ED5BFF4F80E090E0AAE7B4E4808391838B
:103F9000A283B3838E01015C1F4FFE01ED5BFF4FD7
:103FA000608171818281938120E030E04AEF54E4A6
:103FB0000E941F02DC01CB01F80180839183A28360
:103FC000B383FE01FF96608171818281938120E03D
:103FD00030E040E85FE30E94790388232CF481E01D
:103FE00090E09EAF8DAF46C0FE01FF96608171816B
:103FF0008281938120E03FEF4FE757E40E9419034D
:10400000181664F5FE01ED5BFF4F608171818281BE
:10401000938120E030E040E251E40E941F02DC0185
:10402000CB01BC01CD010E944900DC01CB019EAF58
:104030008DAF0FC088EC90E09CAF8BAF8BAD9CAD8B
:104040000197F1F79CAF8BAF8DAD9EAD01979EAF01
:104050008DAF8DAD9EAD009769F716C0FE01FF963E
:1040600060817181828193810E944900DC01CB01D2
:104070009EAF8DAF8DAD9EAD9AAF89AF89AD9AAD34
:104080000197F1F79AAF89AF81E00E9477080E940B
:10409000151C81E08093730178CEFE01EB5AFF4F2F
:1040A0008081823009F080C0FE01EB5AFF4F808191
:1040B000882F90E00E94CA0A80E090E0AAE7B4E46A
:1040C0008DAB9EABAFABB8AF6DA97EA98FA998ADF4
:1040D00020E030E04AEF54E40E941F02DC01CB01F3
:1040E00089AB9AABABABBCAB69A97AA98BA99CA9EC
:1040F00020E030E040E85FE30E94790388232CF45D
:1041000081E090E098AB8FA73FC069A97AA98BA9FD
:104110009CA920E03FEF4FE757E40E9419031816CF
:104120004CF56DA97EA98FA998AD20E030E040E262
:1041300051E40E941F02DC01CB01BC01CD010E94B1
:104140004900DC01CB0198AB8FA70FC088EC90E051
:104150009EA78DA78DA59EA50197F1F79EA78DA778
:104160008FA598A9019798AB8FA78FA598A90097BD
:1041700069F714C069A97AA98BA99CA90E94490072
:10418000DC01CB0198AB8FA78FA598A99CA78BA723
:104190008BA59CA50197F1F79CA78BA70E942C16D5
:1041A00081E080937301F1CDFE01EB5AFF4F8081D6
:1041B000833009F034C1FE01EB5AFF4F8081882F14
:1041C00090E00E94CA0A80E090E0AAE7B4E48FA3DE
:1041D00098A7A9A7BAA76FA178A589A59AA520E055
:1041E00030E04AEF54E40E941F02DC01CB018BA3B4
:1041F0009CA3ADA3BEA36BA17CA18DA19EA120E039
:1042000030E040E85FE30E94790388232CF481E0EA
:1042100090E09AA389A33FC06BA17CA18DA19EA130
:1042200020E03FEF4FE757E40E94190318164CF5C2
:104230006FA178A589A59AA520E030E040E251E47D
:104240000E941F02DC01CB01BC01CD010E9449008C
:10425000DC01CB019AA389A30FC088EC90E098A35E
:104260008F8F8F8D98A10197F1F798A38F8F89A1D8
:104270009AA101979AA389A389A19AA1009769F7A6
:1042800014C06BA17CA18DA19EA10E944900DC01FC
:10429000CB019AA389A389A19AA19E8F8D8F8D8D21
:1042A0009E8D0197F1F79E8F8D8F81E00E94770898
:1042B00080917201813009F468CD29E731E080E016
:1042C000B9010E94DB058091790190917A01CC01BE
:1042D000A0E0B0E024EF31E040E050E0BC01CD01CF
:1042E0000E948123DC01CB01892F992790938001C3
:1042F00080937F0180917F01909180012AE030E0DE
:10430000B9010E94A023CB0190937801809377019B
:1043100084E191E00E94410A80E06BE00E946A0A19
:1043200080917701909178010E94CA0A80E090E024
:10433000AAE7B4E4898F9A8FAB8FBC8F698D7A8D91
:104340008B8D9C8D20E030E04AEF54E40E941F02E8
:10435000DC01CB018D8B9E8BAF8BB88F6D897E89F5
:104360008F89988D20E030E040E85FE30E94790378
:1043700088232CF481E090E09C8B8B8B3FC06D896F
:104380007E898F89988D20E03FEF4FE757E40E94A8
:10439000190318164CF5698D7A8D8B8D9C8D20E054
:1043A00030E040E251E40E941F02DC01CB01BC017D
:1043B000CD010E944900DC01CB019C8B8B8B0FC08F
:1043C00088EC90E09A8B898B89899A890197F1F71B
:1043D0009A8B898B8B899C8901979C8B8B8B8B8982
:1043E0009C89009769F714C06D897E898F89988DA3
:1043F0000E944900DC01CB019C8B8B8B8B899C89B3
:10440000988B8F878F8598890197F1F7988B8F8785
:1044100081E00E94770881E08093730149CF81E0B9
:104420000E9477088FE191E00E94410A80E090E0CD
:10443000AAEFB4E48B879C87AD87BE876B857C85AC
:104440008D859E8520E030E04AEF54E40E941F02F3
:10445000DC01CB018F839887A987BA876F81788524
:1044600089859A8520E030E040E85FE30E94790387
:1044700088232CF481E090E09E838D833FC06F8180
:10448000788589859A8520E03FEF4FE757E40E94C1
:10449000190318164CF56B857C858D859E8520E06B
:1044A00030E040E251E40E941F02DC01CB01BC017C
:1044B000CD010E944900DC01CB019E838D830FC09A
:1044C00088EC90E09C838B838B819C810197F1F732
:1044D0009C838B838D819E8101979E838D838D81AB
:1044E0009E81009769F714C06F81788589859A85C8
:1044F0000E944900DC01CB019E838D838D819E81CA
:104500009A83898389819A810197F1F79A838983B4
:1045100081E00E9477088AEF90E00E94410A80E0E3
:104520006CE00E946A0A31CCDF93CF93CDB7DEB73F
:1045300081E080937201CF91DF910895DF93CF9353
:1045400000D00F92CDB7DEB789837B836A830E9448
:10455000E8118A819B81892F992784650E943C12EA
:104560008A810E94941289810E9494120E94F312FF
:104570000F900F900F90CF91DF910895DF93CF931D
:1045800000D000D0CDB7DEB79A8389837C836B835C
:104590000E94E8118B819C81892F992784650E9454
:1045A0003C128B810E9494120E9412128B819C817A
:1045B000892F992784650E94681289819A810E94B7
:1045C000BD120E94F3120F900F900F900F90CF9199
:1045D000DF910895DF93CF93CDB7DEB72F970FB656
:1045E000F894DEBF0FBECDBF0E9408130E94601377
:1045F000CE010F9665E070E00E94BE228F8581306B
:1046000009F47AC081E065E070E00E949E2280E0BB
:1046100090E0A0E2B1E48B879C87AD87BE876B8575
:104620007C858D859E8520E030E04AEF54E40E9431
:104630001F02DC01CB018F839887A987BA876F811E
:10464000788589859A8520E030E040E85FE30E9424
:10465000790388232CF481E090E09E838D833FC012
:104660006F81788589859A8520E03FEF4FE757E491
:104670000E94190318164CF56B857C858D859E85E7
:1046800020E030E040E251E40E941F02DC01CB0157
:10469000BC01CD010E944900DC01CB019E838D83CA
:1046A0000FC088EC90E09C838B838B819C81019769
:1046B000F1F79C838B838D819E8101979E838D83EF
:1046C0008D819E81009769F714C06F8178858985F7
:1046D0009A850E944900DC01CB019E838D838D81E8
:1046E0009E819A83898389819A810197F1F79A83C0
:1046F00089830E942C1604C00E9451150E94AD1E91
:10470000FFCF629FD001739FF001829FE00DF11DEA
:10471000649FE00DF11D929FF00D839FF00D749F3B
:10472000F00D659FF00D9927729FB00DE11DF91FE7
:10473000639FB00DE11DF91FBD01CF011124089544
:10474000AA1BBB1B51E107C0AA1FBB1FA617B707B7
:1047500010F0A61BB70B881F991F5A95A9F78095D3
:104760009095BC01CD0108952F923F924F925F9298
:104770006F927F928F929F92AF92BF92CF92DF9271
:10478000EF92FF920F931F93CF93DF93CDB7DEB7D6
:10479000CA1BDB0B0FB6F894DEBF0FBECDBF09946A
:1047A0002A88398848885F846E847D848C849B84C1
:1047B000AA84B984C884DF80EE80FD800C811B81CF
:1047C000AA81B981CE0FD11D0FB6F894DEBF0FBEFE
:0A47D000CDBFED010895F894FFCF6E
:1047DA0057656C636F6D65204F6E204C43440054DF
:1047EA00454D50204354524C2053595354454D0083
:1047FA00456E673A4F6D6169722053616164003199
:10480A00202D20537461727400322D456E746572C6
:10481A0020322054656D7000332D53686F77205411
:10482A00656D700057726F6E67204F7074696F6E96
:10483A00202100456E7465722054656D7020483AD7
:10484A0000456E7465722054656D70204C3A004CB8
:10485A006F772054656D70004E6F726D616C004405
:10486A00414E4745524F55532100456E746572209B
:10487A004D6F64653A0050726F63657373696E6752
:10488A002E2E2E00437572722054656D703A0057B1
:10489A00726F6E67204F7074696F6E21000000009E
:1048AA0000000000000103000300040506070001E0
:1048BA000203000102030405060708092B2D4544DB
:0C48CA0000000D0001530102151C7B01D1
:00000001FF
